:020000040000FA
:100000000C9495000C94BD000C94BD000C94BD00A4
:100010000C94BD000C94BD000C94BD000C94D9153B
:100020000C94BD000C94BD000C94BD000C94D7162C
:100030000C94BD000C94BD000C94BD000C94BD004C
:100040000C948D160C94BD000C945B160C94351614
:100050000C94BD000C94BD000C94BD000C94BD002C
:100060000C94BD000C94BD00CDCCCC3D0AD7233CF4
:1000700017B7D13877CC2B329595E6241FB14F0AAC
:100080000000803FCDCCCC3D6F12833A95BFD63374
:100090007D1D9026B3CE010C000020410000C84217
:1000A00000401C4620BCBE4CCA1B0E5AAEC59D74F7
:1000B00000000000230026002900000000002400AA
:1000C00027002A00000000080002010000030407C6
:1000D0000000000000000000646573657269616CD7
:1000E000697A654A736F6E2829206661696C656458
:1000F0003A20000102040810204080010204081088
:100100002001020408102000000000250028002B18
:1001100000040404040404040402020202020203B0
:10012000030303030302AE17C81A11241FBECFEF47
:10013000D8E0DEBFCDBF12E0A0E0B1E0EEE0FFE32B
:1001400002C005900D92A032B107D9F724E0A0E2D9
:10015000B2E001C01D92A734B207E1F710E0C4E994
:10016000D0E004C02197FE010E94721DC339D1075F
:10017000C9F70E9478180C947A1F0C940000089517
:10018000AF92BF92CF92DF92EF92FF920F931F93A5
:10019000CF93DF936C017B018B01040F151FEB01E3
:1001A0005E01AE18BF08C017D10759F06991D6019A
:1001B000ED91FC910190F081E02DC6010995892B0C
:1001C00079F7C501DF91CF911F910F91FF90EF90CB
:1001D000DF90CF90BF90AF900895FC01538D448D78
:1001E000252F30E0842F90E0821B930B541710F0E2
:1001F000CF96089501970895FC01918D828D9817EF
:1002000061F0A28DAE0FBF2FB11D5D968C91928DC6
:100210009F5F9F73928F90E008958FEF9FEF0895F7
:10022000FC01918D828D981731F0828DE80FF11DC0
:10023000858D90E008958FEF9FEF0895FC01918DDB
:10024000228D892F90E0805C9F4F821B91098F73D4
:100250009927089589E692E00E941E0121E0892BEA
:1002600009F420E0822F0895FC01A48DA80FB92F76
:10027000B11DA35ABF4F2C91848D90E001968F73CE
:100280009927848FA689B7892C93A089B1898C91ED
:10029000837080648C93938D848D981306C002883C
:1002A000F389E02D80818F7D80830895EF92FF9206
:1002B0000F931F93CF93DF93EC0181E0888F9B8D89
:1002C0008C8D98131AC0E889F989808185FF15C043
:1002D0009FB7F894EE89FF896083E889F989808166
:1002E0008370806480839FBF81E090E0DF91CF9135
:1002F0001F910F91FF90EF900895F62E0B8D10E057
:100300000F5F1F4F0F731127E02E8C8D8E110CC0C5
:100310000FB607FCFACFE889F989808185FFF5CF10
:10032000CE010E943401F1CFEB8DEC0FFD2FF11DBA
:10033000E35AFF4FF0829FB7F8940B8FEA89FB894D
:1003400080818062CFCFCF93DF93EC01888D8823AB
:10035000B9F0AA89BB89E889F9898C9185FD03C028
:10036000808186FD0DC00FB607FCF7CF8C9185FF0D
:10037000F2CF808185FFEDCFCE010E943401E9CF1D
:10038000DF91CF910895833081F028F4813099F086
:100390008230A9F008958730A9F08830C9F0843000
:1003A000B1F4809180008F7D03C0809180008F77B1
:1003B00080938000089584B58F7784BD089584B5B7
:1003C0008F7DFBCF8091B0008F778093B000089530
:1003D0008091B0008F7DF9CF1F93CF93DF93282FAB
:1003E00030E0F901EC53FF4F8491F901ED50FF4FDC
:1003F000D491F901EF5EFE4FC491CC23A9F0162FE2
:1004000081110E94C301EC2FF0E0EE0FFF1FE95FA6
:10041000FE4FA591B4918FB7F894EC91111108C0DB
:10042000D095DE23DC938FBFDF91CF911F9108958C
:10043000DE2BF8CF9091000189130BC0E5E2F1E0CB
:10044000E4919FEF90930001E13049F028F0E23011
:1004500061F060E00C94EC0110926E00FACF909184
:100460006F009D7F90936F00F4CF909170009D7FFF
:100470009093700091E09093B0009091B100987FBC
:1004800094609093B1001092B300E3CFCF93DF93C9
:1004900090E0FC01ED50FF4F24918F5E9E4FFC01D8
:1004A00084918823C9F090E0880F991FFC01E654DD
:1004B000FF4FA591B491FC01E95FFE4FC591D49126
:1004C00061110DC09FB7F8948C91209582238C9375
:1004D0008881282328839FBFDF91CF9108956230C0
:1004E00051F49FB7F8943C91822F809583238C938D
:1004F000E8812E2BEFCF8FB7F894EC912E2B2C9315
:100500008FBFEACF4F925F926F927F928F929F92AE
:10051000AF92BF92CF92DF92EF92FF920F931F9311
:10052000CF93DF9300D000D01F92CDB7DEB78C0100
:100530002A013B01809100018430C9F08F3F09F40A
:100540007FC00F900F900F900F900F90DF91CF9181
:100550001F910F91FF90EF90DF90CF90BF90AF90E1
:100560009F908F907F906F905F904F900895E5E2FD
:10057000F1E084918D8387FDE4CF61E084E00E9407
:1005800046028D81882321F09D81923009F05CC163
:100590004801B12CA12C60E072E18AE790E0A5014E
:1005A00098010E94FC1B29833A834B835C83690179
:1005B0007A0181E0C81AD108E108F1089FEFC91655
:1005C000D104E104F10409F00CF413C160E472E415
:1005D0008FE090E0A50198010E94FC1B69017A015F
:1005E00081E0C81AD108E108F1089D81923009F034
:1005F00098C08FEFC816D104E104F10409F00CF49F
:10060000DDC160E970ED83E090E0A50198010E94F2
:10061000FC1B69017A0191E0C91AD108E108F108CF
:100620008FEFC816D104E104F10411F00CF0A3C15E
:1006300083E09091B100987F892B8093B100E1C055
:1006400084E080930001E5E2F1E094919D839F3F77
:1006500009F477CF913029F158F0923009F43FC076
:100660008D8187FD6ECF61E084E00E9446028CCFD1
:1006700014BC15BC84B5826084BD85B5816085BD20
:10068000E5E1F1E0E491F0E0EE0FFF1FE95FFE4FDE
:1006900085919491E7EFF0E0E491E0935C021D8294
:1006A0006CCF109280001092810080918100886050
:1006B0008093810080918100816080938100E5E1D9
:1006C000F1E0E491F0E0EE0FFF1FE95FFE4F85914E
:1006D0009491E7EFF0E0E491E0935B024ECF10924B
:1006E000B0001092B1008091B00082608093B000A1
:1006F0008091B10081608093B100E5E1F1E0E49187
:10070000F0E0EE0FFF1FE95FFE4F8591949190930B
:100710005A0280935902E7EFF0E0E491E093580227
:100720002CCF9FEFC916D104E104F10409F00CF4B9
:1007300089C068E478EE81E090E0A50198010E940C
:10074000FC1B69017A0181E0C81AD108E108F108AF
:100750009D81992309F428C19FEFC916D104E104B2
:10076000F10409F00CF41EC162E17AE780E090E048
:10077000A50194010E94FC1B69017A0181E0C81A5D
:10078000D108E108F1089D81992309F4EBC08FEFAE
:10079000C816D104E104F10411F008F0BFC086E0EE
:1007A00048CF64E274EF80E090E0A50194010E94DC
:1007B000FC1B69017A0181E0C81AD108E108F1083F
:1007C00085E09FEFC916D104E104F10409F008F4B3
:1007D00030CF62E17AE780E090E0A50194010E94C9
:1007E000FC1B69017A0191E0C91AD108E108F108FE
:1007F000CECF81E09D8191111CCF95B5987F892B3B
:1008000085BD2FEF3FEFA90141145104610471042C
:1008100009F043C09D81913009F45EC0923009F423
:100820006DC091118ECEC7BC2093650230936602D5
:10083000409367025093680280916E0082608093BB
:100840006E007FCE82E0D6CFB12CA12C60E072E1A9
:100850008AE790E0A50198010E94FC1B69017A01DA
:1008600081E0C81AD108E108F108C114D10491E06F
:10087000E906F10404F591E08D81813011F6809153
:100880008100887F892B809381002FEF3FEFA901A2
:100890004114510461047104F9F0D801AA0FBB1F7F
:1008A000A30192010E941B1C28EE33E040E050E0BF
:1008B0000E94651CAFCF68E478EE81E090E0A5016E
:1008C00098010E94FC1B69017A0181E0C81AD108D5
:1008D000E108F10893E0D0CFD0928900C09288005F
:1008E000209361023093620240936302509364024A
:1008F00080916F00826080936F0023CEC092B3001E
:1009000020935D0230935E0240935F025093600239
:100910008091700082608093700013CEC980DA806D
:10092000EB80FC809AE0F594E794D794C7949A956D
:10093000D1F791E0C91AD108E108F10887E079CE32
:10094000C980DA80EB80FC808AE0F594E794D79444
:10095000C7948A95D1F791E0C91AD108E108F10846
:1009600085E04BCF8FEFC816D104E104F10409F004
:1009700038F784E042CF68E478EE81E090E0A501AA
:1009800098010E94FC1B69017A0191E0C91AD10803
:10099000E108F1088FEFC816D104E104F10411F069
:1009A0000CF0FFCE84E045CE8FEFC816D104E104F1
:1009B000F10411F00CF0D8CE83E01FCF82E039CEE5
:1009C000CF93DF93C82F80912E03882339F0809135
:1009D000330387FD03C060E00E944602C0933303E7
:1009E00080912E03882341F061E08C2F0E94460203
:1009F00060E08C2F0E94EC01D0E0FE01EF5EFE4F24
:100A0000E491F0E0EE0FFF1FE95FFE4F2591349176
:100A10003093400320933F03FE01ED50FF4FE491DC
:100A2000E0934103DF91CF9108951F93CF93DF931C
:100A3000182FEB0161E00E944602209739F460E034
:100A4000812FDF91CF911F910C94EC01CF3FD10505
:100A500011F461E0F5CFE12FF0E0EC53FF4FE491AA
:100A6000E33031F140F4E130B1F0E230E1F0C03890
:100A7000D1057CF7E4CFE73029F1E83059F1E430D3
:100A8000B1F780918000806280938000D0938B00CA
:100A9000C0938A0004C084B5806884BDC7BDDF915F
:100AA000CF911F91089584B5806284BDC8BDF7CFF2
:100AB00080918000806880938000D0938900C093EB
:100AC0008800EDCF8091B00080688093B000C09323
:100AD000B300E5CF8091B00080628093B000C093F6
:100AE000B400DDCF3FB7F894809153029091540247
:100AF000A0915502B091560226B5A89B05C02F3F84
:100B000019F00196A11DB11D3FBFBA2FA92F982F33
:100B10008827BC01CD01620F711D811D911D42E02E
:100B2000660F771F881F991F4A95D1F708950F9375
:100B30001F93CF93DF93CDB7DEB729970FB6F89405
:100B4000DEBF0FBECDBF8091350390913603892B58
:100B500009F467C00E94720500913B0310913C03A9
:100B600020913D0330913E03601B710B820B930B70
:100B70006C3271408105910568F3F89480913103DE
:100B8000909132039A838983E0913503F091360383
:100B9000DF0111968081898790912D03E0913F03B9
:100BA000F091400380914103992309F445C090815D
:100BB000982B98879081809589238F838F818C8350
:100BC00088E08B8358856F8149853B812C818981A1
:100BD0009A81508347FD252F3A952083262F39F09F
:100BE000441F00C000006083000000C0F2CF38E066
:100BF0004D9160830000019761F7F0934003E0930B
:100C00003F0349873B832C839A83898378940E948E
:100C1000720560933B0370933C0380933D03909374
:100C20003E0329960FB6F894DEBF0FBECDBFDF910D
:100C3000CF911F910F9108959081982B9887908163
:100C4000809589238F838F818E8388E08D8358855B
:100C50006F8149853D812E8189819A81508347FD2D
:100C6000252F00C000C0208300C000C000C000C00D
:100C700000C060830000262F3A9541F0441F000019
:100C800000C000C000C000C000C0E8CF38E04D91F7
:100C900000C0608300C0019709F7F0934003E09320
:100CA0003F0349873D832E83AFCF8F929F92AF92B0
:100CB000BF92CF92DF92EF92FF926B017C010E9474
:100CC00072054B015C01C114D104E104F104B9F0D7
:100CD0000E947205681979098A099B09683E734068
:100CE0008105910580F321E0C21AD108E108F108DD
:100CF00088EE880E83E0981EA11CB11CE4CFFF9003
:100D0000EF90DF90CF90BF90AF909F908F9008951D
:100D1000CF93DF93EC0188819981DC01ED91FC9107
:100D20000190F081E02D09952A813B81820F931F6C
:100D30009B838A83DF91CF910895CF93DF93EC015A
:100D400088819981DC01ED91FC910280F381E02D95
:100D500009952A813B81820F931F9B838A83DF91B0
:100D6000CF910895EF92FF920F931F93CF93DF934C
:100D7000CDB7DEB766970FB6F894DEBF0FBECDBF16
:100D80008C01CB01FE0177969F014AE0E42EF12C05
:100D9000B7010E945E1D805D8293CB010097C1F771
:100DA000A9014E1B5F0BBF01C8010E949D066696FC
:100DB0000FB6F894DEBF0FBECDBFDF91CF911F916C
:100DC0000F91FF90EF9008958F929F92AF92BF92F4
:100DD000CF92DF92EF92FF920F931F93CF93DF9307
:100DE000CDB7DEB766970FB6F894DEBF0FBECDBFA6
:100DF0006C018E01095E1F4F78018AE0882E912CCC
:100E0000A12CB12CCB01BA01A50194010E94651C53
:100E1000942F852F605DF80162938F01A901692FDE
:100E2000782F411551056105710561F7A7014E1B2A
:100E30005F0BBF01C6010E949D0666960FB6F8942F
:100E4000DEBF0FBECDBFDF91CF911F910F91FF90FD
:100E5000EF90DF90CF90BF90AF909F908F900895CC
:100E6000EF92FF920F931F93CF93DF93EC017B01DF
:100E700062E20E9488068701F80161918F01662372
:100E800091F0E7E2F1E0F280FF2049F032968181B3
:100E90006813F9CF6CE5CE010E9488066F2DCE0154
:100EA0000E948806E9CF62E2CE01DF91CF911F91C7
:100EB0000F91FF90EF900C94880680339CF08A335A
:100EC00024F08F3524F08B3724F481E008958134A9
:100ED0004CF08B35D4F393ED980F81E09230B0F362
:100EE00080E008958B32B9F7F0CFFC01868581113F
:100EF00014C0A185B285838594852FEF3FEFA81795
:100F0000B90730F4CD010196928781872C9130E0AA
:100F100037FD20E0258781E08687858508951F932A
:100F2000CF93DF93EC01162F0E947507811306C043
:100F30001E8681E0DF91CF911F91089580E0FACF66
:100F4000CF93DF93EC01CE010E9475078B303CF408
:100F500089304CF4882349F081E0888710C08D30B7
:100F600011F08032C9F71E86EECF888581110AC044
:100F700081E090E0CF5ADF4F9983888380E0DF9152
:100F8000CF91089582E090E0F5CFFC010E96918319
:100F900080839383828388539F4F95838483978331
:100FA000868310868585807885870895FC018281F7
:100FB00093810097C1F024813581468157812417A0
:100FC000350740F0138212820190F081E02D81E01C
:100FD00080870895A9014F5F5F4F55834483820F37
:100FE000931FFC01608308959F92AF92BF92CF92AE
:100FF000DF92EF92FF920F931F93CF93DF9300D076
:1010000000D01F92CDB7DEB78C010E947507D82E95
:10101000F8011686F12CE12C70EFC72EC8010E9452
:101020007507F8011686D81609F4C1C0811119C0D8
:10103000F801EF5AFF4F82E090E09183808380E0D7
:101040000F900F900F900F900F90DF91CF911F9105
:101050000F91FF90EF90DF90CF90BF90AF909F9057
:1010600008958C3509F09EC0C8010E947507882339
:10107000F9F2E7E2F1E0853709F088C0F801168659
:1010800064E0962EB12CA12CC8010E94750788231C
:1010900079F281344CF48053803148F0F801EF5AF2
:1010A000FF4F83E090E0C9CF8F7D8753F5CF54E0A9
:1010B000AA0CBB1C5A95E1F7A82AF80116869A9447
:1010C0009110E2CFC501985D8115944020F475011F
:1010D00023E0F222A3CFC5019C5D8115944008F561
:1010E000F3E0BF22C701982F8827990F990F8A290B
:1010F0009B29B0E0A0E01196198280389105A105E6
:10110000B10598F48A835E0123E0A20EB11CF501BB
:1011100062915F01662309F481CFC8010E94D6075E
:10112000F6CFC501B0E0A0E0E7CF282F2F732068ED
:101130002A8336E0B695A795979587953A95D1F786
:101140008032910538F4806C8B835E0184E0A80EB8
:10115000B11CDDCF282F2F7320682B8326E09695B6
:1011600087952A95E1F78031910538F4806E8C835C
:101170005E01E5E0AE0EB11CCACF80688C83CD82E3
:101180005E01F6E0AF0EB11CC2CF3296908199237A
:1011900009F484CF8913F9CF8181882309F47ECFA4
:1011A000F8011686682FC8010E94D60737CF60E085
:1011B000C8010E94D607F80182819381892B29F406
:1011C000EF5AFF4F84E090E038CF81E039CFEF92C3
:1011D000FF920F931F93CF93DF93DC01ED90FC9070
:1011E000E7012A813B81E881F981E217F30780F466
:1011F000B901DF01EB014991BE018D010F5F1F4F66
:101200005C91451318C0D8014111F4CF309759F4BF
:10121000FC0184819581820F931FD70113969C93C3
:101220008E931297F901CF01DF91CF911F910F910A
:10123000FF90EF900895FD014191DF014111FBCF37
:10124000D4CF4F925F926F927F928F929F92AF9284
:10125000BF92CF92DF92EF92FF920F931F93CF93A3
:10126000DF93EC017B0188818B32C1F18D32B9F5BE
:10127000219611E0888190ED980F9A3018F08E3207
:1012800009F03AC160E070E0CB01FE01219100ED70
:10129000020F0A3030F56A3929E97207820729E11D
:1012A000920708F045C0AAE0B0E09B01AC010E94A3
:1012B0001B1C802E912CB12CA12C240135014094B3
:1012C000509460947094461657066806790680F12B
:1012D000680D791D8A1D9B1DEF01D7CF219610E067
:1012E000C9CF211125C0F701248120781123C1F035
:1012F0002A6024836083718382839383812FDF91AB
:10130000CF911F910F91FF90EF90DF90CF90BF9002
:10131000AF909F908F907F906F905F904F900895C7
:1013200028602483608371838283938311E0E6CFF6
:1013300000E0EAE08E2E912CA12CB12C61157105F4
:10134000F0E88F07910540F0A50194010E94651C0B
:10135000CA01B9010F5FF2CFFE01299130ED320FC2
:101360003A3010F40F5FF8CF2E32F1F4EF012196EE
:10137000FE012196208150EDD52ED20E29E02D15AB
:1013800098F06C3CECEC7E07ECE08E07910580F762
:10139000AAE0B0E09B01AC010E941B1C6D0D711D09
:1013A000811D911D0150E4CF20812F7DD0E0C0E050
:1013B000253409F05DC021812D32D9F53296CC2437
:1013C000C394DF01D0E0C0E0202F002E000C330BCF
:1013D0004AE0B42EFD01DD9040ED4D0D4A3008F09D
:1013E00042C0BC9EA001BD9E500D1124CD2DDD0C30
:1013F000DD0BE097C40FD51FAE01420F531F4732DC
:10140000510544F3F7018481CC20D1F040E050E055
:1014100060E070E8111103C040E050E0BA0180784C
:101420008C60F701848340835183628373831C2D16
:1014300065CF2B3219F03196C12CC3CF3296FCCF39
:1014400040E050E060E87FEF111104C040E050E060
:1014500060E87FE780788C60F70184834083518364
:101460006283738363CFCC2019F0D195C195D109E4
:101470002081211141C0C00FD11D07FDDA950E94C6
:10148000DD1A1C161D0604F500E0C0FF0CC024E0A8
:10149000029FF0011124E856FF4F259135914591A7
:1014A00054910E943E1BD595C7950F5F209769F711
:1014B00011119058F701248120782C6024836083D7
:1014C00071838283938332CFD195C195D10900E096
:1014D000209771F3C0FF0CC024E0029FF00111249B
:1014E000E859FF4F25913591459154910E943E1B3B
:1014F000D595C7950F5FECCF10E000CFCF92DF926C
:10150000EF92FF92CF93DF9300D000D01F92CDB720
:10151000DEB7DC0114969C9114979F77963071F09A
:10152000FD01973028F4943070F590E080E011C010
:101530009A30D9F09C30A1F19830B9F78D919D91F6
:101540000D90BC91A02D811520E89207A105B10551
:1015500060F70F900F900F900F900F90DF91CF9149
:10156000FF90EF90DF90CF90089580819181A281CC
:10157000B381813020E89207A105B105B0F69195BD
:1015800081959109E6CF808191811D82BE016F5FB7
:101590007F4F0E942109CE0101960E947E0AD9CF79
:1015A000C080D180E280F38020E030E040E057EC62
:1015B000C701B6010E94391D87FDB7CF20E03EEF7D
:1015C0004FEF56E4C701B6010E94D81A18160CF462
:1015D000ACCFC701B6010E94031DCB01BACF009763
:1015E00011F00C947E0A90E080E00895CF93DF9391
:1015F000DC01EB01EC81FD818A819B810896E81773
:10160000F90740F481E08887F0E0E0E0CF01DF9166
:10161000CF9108953897FD83EC833097B9F31296F4
:10162000CD91DC911397209791F0CF018C1B9D0BEE
:1016300023E0959587952A95E1F78D831396FC9382
:10164000EE9312971582148217821682DFCF1196BD
:10165000FC93EE93F3CFFC012581222339F0F8E0CF
:101660002F0290011124820F931F089590E080E0D3
:101670000895FB0101900020E9F73197AF01461B67
:10168000570B0C949D062F923F924F925F926F9250
:101690007F928F929F92AF92BF92CF92DF92EF9202
:1016A000FF920F931F93CF93DF93CDB7DEB766976B
:1016B0000FB6F894DEBF0FBECDBF8C011B01DC015D
:1016C00014968C9114978F77863009F463C278F45E
:1016D0008230B0F0843008F044C212964D915C9193
:1016E00013976D917C91C1010E949D0636C28C308A
:1016F00069F160F4883009F448C28A3009F437C2CD
:1017000068E371E0C1010E94390B27C2803209F4FD
:10171000FCC18034A9F76BE5C1010E948806F8017D
:10172000008111810115110509F4EAC1B101C80157
:101730000E94430BC8010E942B0B8C01892B09F4DA
:10174000DFC16CE2C1010E948806ECCFF801C080C5
:10175000D180E280F380A7019601C701B6010E9403
:10176000D81A882331F068E371E0C1010E94390B77
:101770009FC120E030E0A901C701B6010E94D81A3C
:10178000882371F0A7019601C701B6010E94971C3A
:101790009B01AC01C701B6010E94D81A882319F336
:1017A00020E030E0A901C701B6010E94D81A87FFE6
:1017B00008C06DE2C1010E948806F7FAF094F7F8BC
:1017C000F09420E836E948E15BE4C701B6010E94E5
:1017D000391D87FD81C064E1A62EB12C00E210E026
:1017E0001A8A198AF501E856FF4F259135914591DE
:1017F0005491C701B6010E94391D87FD13C0F50140
:10180000E859FF4F2591359145915491C701B60193
:101810000E943E1B6B017C0129893A89200F311FF0
:101820003A8B298B1595079534E0A31AB1088CEFF4
:10183000A8168FEFB806B1F655245A9420E030E090
:10184000A901C701B6010E94391D18160CF04BC042
:101850002CEA35EC47E257E3C701B6010E94D81ADB
:1018600018160CF440C0A52DB4E0AB02C001112441
:10187000B12CA12CFC01E058FF4F3F019C012856E0
:101880003F4F49013FEF531671F1F301EA0DFB1D84
:101890006591759185919491A70196010E94391DDA
:1018A00018169CF4F401EA0DFB1D25913591459124
:1018B0005491C701B6010E943E1B6B017C018989CE
:1018C0009A89801B910B9A8B898B159507955A9451
:1018D00094E0A91AB108D6CF00E210E045E0542EFA
:1018E0001A8A198AABCFC701B6010E940A1D4B01A3
:1018F0005C012B013C0106E080E492E4AFE0B0E043
:101900008B8B9C8BAD8BBE8B102F01509AE04916B0
:10191000510461047104C8F06B897C898D899E89AA
:101920002AE030E040E050E00E94651C2B8B3C8BAD
:101930004D8B5E8BC301B2012AE030E040E050E005
:101940000E94651C29013A01DFCFC501B4010E9444
:10195000DD1A9B01AC01C701B6010E94961C6B0108
:101960007C016B897C898D899E890E94DD1A9B018F
:10197000AC01C701B6010E943E1B2B013C010E9435
:101980000A1D6B017C010E94DD1A9B01AC01C301A1
:10199000B2010E94961C9B01AC010E94971C0E9400
:1019A0000A1DC60ED71EE81EF91E8B899C89AD89BB
:1019B000BE89C816D906EA06FB06D8F09FEF891A39
:1019C000990AA90AB90AA989BA89AB2B39F1BAE0EF
:1019D0008B169104A104B10408F1E989FA893196C2
:1019E000FA8BE98BC12CD12C7601812C912C5401DE
:1019F00083949AE0492E512C612C712CC701B601B9
:101A0000A30192010E94651C672B682B692B51F47E
:101A1000111644F469017A011150F0CFC12CD12C78
:101A20007601E7CFB501A401C1010E94E4061123AC
:101A300071F14E01F1E18F0E911C012F54018AE0EA
:101A4000482E512C612C712C015068F0C701B60151
:101A5000A30192010E94651C605DD4016E934D014B
:101A600069017A01F1CF812F90E0BC0160957095FA
:101A7000F501E81BF90B31978EE280834427552747
:101A8000461B570B6A0D7B1DC1010E949D06E9890B
:101A9000FA89F7FF2AC06DE371E0C1010E94390B9A
:101AA00069897A89719561957109C1010E94B206AF
:101AB000D10112968D919C9166960FB6F894DEBF77
:101AC0000FBECDBFDF91CF911F910F91FF90EF908F
:101AD000DF90CF90BF90AF909F908F907F906F904E
:101AE0005F904F903F902F90089529893A89232B3A
:101AF000F9F265E6C1010E94880669897A89D5CF25
:101B00006DE5C1010E948806D3CF6BE7C1010E9439
:101B10008806F8010081118101151105D1F0D80165
:101B200016966D917C91C1010E9430076AE3C10154
:101B30000E948806B101C8010E94430BC8010E949F
:101B40002B0B8C01892B29F06CE2C1010E948806C5
:101B5000E3CF6DE7C1010E948806F1018281938184
:101B6000ABCF6D917C91C1010E943007F6CFCD9033
:101B7000DD90ED90FC906DE2C1010E948806B701F6
:101B8000A601C1010E94E406E8CF4D915D916D91DF
:101B90007C91F7CFF80180819181A281B38160E4CB
:101BA00071E0892B8A2B8B2B09F0DFCD65E471E086
:101BB000DCCD0F931F93CF93DF938C01809135037E
:101BC00090913603009711F00E94141E90913A03F1
:101BD00080913703981721F184E090E0809FE00125
:101BE000819FD00D909FD00D1124D0933203C093CC
:101BF0003103CE010E94781D909336038093350304
:101C0000009789F0AE0170E060E00E94631F1093BE
:101C1000300300932F03DF91CF911F910F9108950F
:101C200083E090E0DBCF10923203109231031092E8
:101C3000300310922F03EFCFFC0124813581232B39
:101C400039F421E0FB018081882349F020E007C0BE
:101C5000808191810E946A1F21E0892BB9F7822F30
:101C600008950F931F93CF93DF938B01EC01892B82
:101C7000A1F06E817F816017710779F00115110560
:101C800041F06115710529F0C8010E946A1F892B76
:101C900021F0CE010E942B0BE9CFCE01DF91CF9135
:101CA0001F910F9108959F92AF92BF92CF92DF92B2
:101CB000EF92FF920F931F93CF93DF93EC018B0171
:101CC000E42E0E94A007F82E81110EC0F12C8F2D5A
:101CD000DF91CF911F910F91FF90EF90DF90CF9008
:101CE000BF90AF909F900895CE010E9475078732F4
:101CF00009F415C114F5823209F411C1CE010E9414
:101D00007507B82E6E01F1E1CF0ED11CE12C9C2C91
:101D1000AD2C8B2D0E945D07882309F422C18FE32F
:101D2000E81609F41EC11E86E394F601B1926F0114
:101D3000CE010E947507B82EECCF8B3509F455C043
:101D40008B37E1F6F8018481807880628483118288
:101D5000108213821282EE2009F452C01E86CE0138
:101D60000E94A007882309F4B1CF6DE7CE010E943D
:101D70008F078111ACCFEA94E881F9818281938148
:101D80009B838A838481958122813381821B930B7B
:101D90009F838E831D821C82CE010E94750787322D
:101DA00009F46EC0823209F46BC0CE010E9475073F
:101DB000D82E0E945D07882309F45DC01E866D2D14
:101DC000CE010E94D607CE010E947507D82E0E9430
:101DD0005D078111F3CF60E0CE010E94D6078A81B2
:101DE0009B81892B09F052C027C0F801848180783B
:101DF000806484831182108213821282E11007C0F2
:101E0000CF5ADF4F86E090E0998388835FCF1E86AC
:101E1000CE010E94A007882309F458CF6DE5CE01BA
:101E20000E948F07811153CFEA946F857889C8018A
:101E30000E94F60A009729F4CF5ADF4F84E090E021
:101E4000E3CF4E2DBC01CE010E94530E882309F42E
:101E50003DCFCE010E94A007882309F437CF6DE55E
:101E6000CE010E948F07811132CF6CE2CE010E9419
:101E70008F078111DACFCF5ADF4F83E090E0C4CFD4
:101E8000CE010E94F407882309F420CFCE010E94DE
:101E9000A007882309F41ACF6AE3CE010E948F07B6
:101EA000882349F36A817B81F801808191810E94B6
:101EB000310EBC01892B99F4CE010E94E7086C0118
:101EC0006F857889C8010E94F60AFC01892B09F404
:101ED000B3CF848180688483D782C682BF014E2DB0
:101EE000CE010E94530E882309F4F0CECE010E9449
:101EF000A007882309F4EACE6DE7CE010E948F0780
:101F00008111E5CE6CE2CE010E948F07882309F48F
:101F1000B2CFCE010E94A00781112ECFD7CEE8818B
:101F2000F981828193819B838A8384819581228137
:101F30003381821B930B9F838E831D821C82CE0173
:101F40000E94F407F82E882309F4C0CECE010E9427
:101F5000E708F80124812078256024839183808319
:101F6000B6CEFE01EE0DF11D118A89898437B1F4D8
:101F7000F801848180788660848381E090E0A0E02D
:101F8000B0E080839183A283B383F4E0EF1609F479
:101F90009ECECF5ADF4F82E090E036CF863659F49E
:101FA000F801848180788660848310821182128295
:101FB0001382F5E0EBCF8E3621F484E0E812E9CF0E
:101FC00086CEB801892D9A2D0E942109882309F413
:101FD00052CF7DCE2091530325FF07C0BC018091D5
:101FE0004F03909150030C94310E90E080E00895DF
:101FF0000F931F93CF93DF93EC0188819981009712
:1020000059F02A813B812617370730F081E0DF91B4
:10201000CF911F910F9108958B016F5F7F4F0E94A9
:102020009D1E009759F0998388831B830A832C8116
:102030003D81232B59F7FC011082E8CF80E0E7CFE8
:10204000EF92FF920F931F93CF93DF93EC017B01ED
:102050008A01BA010E94F80F28813981811114C0C8
:102060002115310519F0C9010E94141E1982188228
:102070001D821C821B821A82CE01DF91CF911F919B
:102080000F91FF90EF9008951D830C83B701C90154
:102090000E94731FF1CF8F929F92AF92BF92CF9207
:1020A000DF92EF92FF920F931F93CF93DF93CDB701
:1020B000DEB7CC5DD1090FB6F894DEBF0FBECDBF41
:1020C0008BE491E00E94EA0FFC01892B09F489C09E
:1020D00094819F779450923008F083C06081718121
:1020E000C952DF4F19821882C75DD040C752DF4FF7
:1020F00019821882C95DD040C552DF4F19821882FB
:10210000CB5DD0406115710569F0FB0101900020A5
:10211000E9F73197AF01461B570BCE0189529F4F0C
:102120000E9420106FE471E0CE0189529F4F0E94FF
:102130001C0E882309F458C082E591E00E94EA0F42
:102140000E94EF0A7C0190934303809342038EE147
:1021500092E00E94EA0F0E94EF0A182F8093440336
:1021600090934503C7010E94D90D812F0E94E0047E
:102170008091330387FD08C061E00E94460260E061
:10218000809133030E94EC0181E080932E030E9432
:10219000970550E040E067E371E08CE194E00E9435
:1021A000201010925702C952DF4F88819981C75D74
:1021B000D040009711F00E94141EC452DF4F0FB69A
:1021C000F894DEBF0FBECDBFDF91CF911F910F916D
:1021D000FF90EF90DF90CF90BF90AF909F908F9047
:1021E000089570E060E07CCF64E571E0CE01895233
:1021F0009F4F0E941C0E882309F47FC081EC91E060
:102200000E94EA0F0E94EF0A7C0183E691E00E949F
:10221000EA0F0E94EF0A082F87E591E00E94EA0F7B
:102220000E94EF0A182F8AE591E00E94EA0F0E94AF
:10223000EF0A97012150310940912F03509130034B
:102240002417350708F0A3CF412F50E070E060E07D
:10225000762F652F542F4427602B482B4B01AA243F
:10226000BB24C52ED62EE72EFF240C2D142F8091D3
:102270003403E82D882391F0A82FB0E0A89DF00149
:10228000A99DF00DB89DF00D1124EF2F8C9D6001DC
:1022900011240D2D849FA0011124152FA0913A0324
:1022A000809135039091360340913703A4131AC0EF
:1022B000A901440F551F240F351F820F931FA091B2
:1022C0003703A80FB92FB11DEC93E0913803E80F45
:1022D000F92FF11D008320913903820F911DFC011C
:1022E000108355CF220F331F220F331F820F931FEE
:1022F000A80FB92FB11D1C92E2CF69E571E0CE01A4
:1023000089529F4F0E941C0E882309F443C08CE51C
:1023100091E00E94EA0F0E94EF0AFF24F394F80E66
:1023200020913403F21609F434CF00913503109153
:102330003603215070E060E061F08F3FF1F430E04F
:1023400050E040E06FEF7FEF80E090E00E94FC1BE8
:10235000B901F8014091310350913203CF01801B44
:10236000910B8417950798F44081469FC001479FC1
:10237000900D112490833196EDCF8F2D90E0982F02
:1023800088270197622F70E00E944A1DE2CFF092E9
:102390003403FFCE6EE571E0CE0189529F4F0E945B
:1023A0001C0E8823E9F18EE192E00E94EA0F0E9460
:1023B000EF0A85E691E00E94EA0F0E94EF0A8C0185
:1023C0008DE691E00E94EA0F0E94EF0A7C01181648
:1023D0001906BCF440E050E0BA0188EB91E00E949D
:1023E0008202B801110F880B990B0E94550684E0F8
:1023F0000E941A02B701FF0C880B990B0E94550628
:10240000C8CE892B09F0C5CE40E050E0BA0188EB78
:1024100091E00E948202B801110F880B990BEECF58
:1024200066E771E0CE0189529F4F0E941C0E8823FF
:10243000A9F085E591E00E94EA0F0E94EF0ABC0135
:10244000990F880B990B0E94DF1A609324027093F6
:10245000250280932602909327029BCE60E871E0CC
:10246000CE0189529F4F0E941C0E882309F4CAC0D6
:102470008EE192E00E94EA0F0E94EF0A85E891E067
:102480000E94EA0F0E94EF0A8C018BE891E00E9403
:10249000EA0F0E94EF0A4C01C0902402D09025025E
:1024A000E0902602F090270220E030E040E85FE371
:1024B000C701B6010E94D81A81111AC01016110660
:1024C00084F4609120027091210280912202909107
:1024D00023020E940A1DAB01BC01C8010E948202B6
:1024E00058CE012B09F055CE84E00E941A0251CE3D
:1024F00020E030E040E85FE3C701B6010E94391DEB
:1025000018160CF062C0B401990C880B990B0E944C
:10251000DF1A4B015C0120E030E0A901C701B601E0
:102520000E94391D181694F5A7019601C501B40142
:102530000E943E1B6093200270932102809322022E
:1025400090932302B12CA12CC0902002D0902102A4
:10255000E0902202F0902302B5010B2C000C880BB6
:10256000990B0E94DF1AA70196010E94D81A18162B
:10257000FCF0C701B6010E940A1DAB01BC01C801F5
:102580000E948202FFEFAF1ABF0ADECF20E030E0E8
:10259000A901C701B6010E94D81A8111D3CF809238
:1025A000200290922102A0922202B0922302CACF6E
:1025B00023E333E343E95FE3C701B6010E943E1B17
:1025C0000E940A1D0E9455068FCF20E030E0A9012D
:1025D000C701B6010E94D81A8111DBCD40E050E05E
:1025E000BA01C8010E948202092C000CAA08BB088B
:1025F000C501B4010E94550684E00E941A02C5017B
:10260000B401FCCE60E971E0CE0189529F4F0E9477
:102610001C0E882391F08EE192E00E94EA0F0E9446
:10262000EF0A182F8CE591E00E94EA0F0E94EF0A52
:10263000682F812F0E94EC01ACCD63E971E0CE01DF
:1026400089529F4F0E941C0E882351F08EE192E028
:102650000E94EA0F0E94EF0A61E00E94460299CDB3
:1026600068E971E0CE0189529F4F0E941C0E8823B9
:1026700091F08EE192E00E94EA0F0E94EF0A182F7B
:102680008CE591E00E94EA0F0E94EF0ABC01812FC5
:102690000E9415057ECD6CE971E0CE0189529F4FF5
:1026A0000E941C0E8111D2CF62EA71E0CE018952E4
:1026B0009F4F0E941C0E882371F188EA91E00E94CE
:1026C000EA0F0E94EF0A6C018DEA91E00E94EA0F86
:1026D0000E94EF0A7C018EE891E00E94EA0F0E94BE
:1026E000EF0A8C01C6010115110579F00E940C1A40
:1026F000C7010E94CE19B80190E080E00E94550603
:102700000E94041A0E94C61944CD0E940C1AC701E7
:102710000E94CE193ECD62EB71E0CE0189529F4FEF
:102720000E941C0E882309F494C08EE192E00E945E
:10273000EA0F0E94EF0A7C018CE591E00E94EA0F0B
:102740000E94EF0A21E0E21AF1088701000F111F31
:10275000803232E093070CF040C0F801EE0DFF1D0F
:10276000EA5FFC4F218178E8872E912C821A91082C
:1027700027FD9394880C991C880C991C092C000C3B
:10278000AA08BB08428128E532E0241B310947FD35
:102790003395220F331F220F331F032E000C440BDF
:1027A000550B281939094A095B09DC01853B91055C
:1027B00014F0A4EBB0E0B7FF02C0B0E0A0E00E94CC
:1027C000261C24EB30E040E050E00E94FC1BDA01C4
:1027D000C901880D991DAA1DBB1D0E0D1F1DF801F5
:1027E000EA5FFC4F20812C3078F5318148E850E0D9
:1027F000431B510937FD5395440F551F440F551F77
:10280000841795077CF0328148E552E0431B51095B
:1028100037FD5395440F551F440F551F84179507D7
:102820000CF4AC0142505109440F551F3FB7F894C6
:10283000822F90E0FC01EE0FFF1FE80FF91FE75D0C
:10284000FD4F528341833FBF6FE070E080E090E036
:10285000D5CD68EB71E0CE0189529F4F0E941C0ECE
:10286000882309F470C08EE192E00E94EA0F0E9472
:10287000EF0A4C018C01015011095801AA0CBB1C34
:10288000C501800F911FFC01EA5FFC4F7F01808131
:102890008C3008F07ECC61E0882D0E944602F70162
:1028A0008081282F30E0F901EE0FFF1FE20FF31FA8
:1028B000E75DFD4F282D2F73822E9081907C892A11
:1028C0008082F701118212822CE0622F0E943E1D4D
:1028D000829FB001112430E020E0AB01420F531F72
:1028E000FA01EE0FFF1FE40FF51FE75DFD4F90812A
:1028F00096FD16C02F5F3F4F2C30310571F78111C7
:102900000FC01092800082E08093810010928500B9
:1029100010928400B19A80916F00826080936F0062
:102920000A0D1B1DF801EA5FFC4FE0818E2F90E03D
:10293000FC01EE0FFF1FE80FF91FE75DFD4F8081DF
:102940008064808326CC60EC71E0CE0189529F4F79
:102950000E941C0E882309F463C08EE192E00E945D
:10296000EA0F0E94EF0A082FF92E8E3010F082EF46
:10297000800F8770806480937C0080917A008064EF
:1029800080937A0080917A0086FDFCCFD090780009
:1029900010917900CE0101960E94C507AE014F5FEC
:1029A0005F4F63EC71E0CE010A960E947E1A60ECE4
:1029B00071E00E94B419AE014F5F5F4F6EE172E0AB
:1029C000CE010A960E947E1A602F7F2D0E94421A25
:1029D000AE014F5F5F4F6CE571E0CE010A960E9439
:1029E0007E1A7C01009791F0FC01848180788C60D4
:1029F0008483712F6D2D072E000C880B990B0E947C
:102A0000DF1AF7016083718382839383CE0101967D
:102A10000E94621A6AE089E692E00E945601B9CBF0
:102A200067EC71E0CE0189529F4F0E941C0E81110C
:102A3000B0CB6CEC71E0CE0189529F4F0E941C0E0E
:102A4000882309F457C08EE192E00E94EA0F0E94A9
:102A5000EF0A8C019C013327F901EC53FF4F84915D
:102A6000F901ED50FF4FE490F901EF5EFE4FF49055
:102A7000FF2009F43CC081110E94C301EF2DF0E05A
:102A8000EE0FFF1FE055FF4FA591B491EC91EE22A0
:102A900081E0F12C09F480E0E82ECE0101960E943D
:102AA000C507AE014F5F5F4F63EC71E0CE010A9640
:102AB0000E947E1A6CEC71E00E94B419AE014F5F67
:102AC0005F4F6EE172E0CE010A960E947E1AB80155
:102AD0000E94421AAE014F5F5F4F6CE571E0CE017C
:102AE0000A960E947E1AB7010E94421A8FCFE12CEB
:102AF000F12CD3CF6FEC71E0CE0189529F4F0E9431
:102B00001C0E882309F445CB8EE192E00E94EA0F67
:102B10000E94EF0A62E0A1CDEF92FF920F931F9304
:102B2000CF93DF9300D0CDB7DEB7EE24E39489E6F0
:102B300092E00E941E01892B69F189E692E00E94D1
:102B4000FC00F82E89831A82009120041091210440
:102B50000F5F1F4FB8018CE194E00E94F80F8823AB
:102B600099F020911C0430911D04809120049091D3
:102B70002104BE016F5F7F4F820F931F0E94731F5E
:102B800010932104009320048DE7F812D0CFE09237
:102B90005702CDCF0F900F90DF91CF911F910F91E2
:102BA000FF90EF9008950E942A0181110C948C15DA
:102BB00008951F920F920FB60F9211242F933F93F7
:102BC0004F935F936F937F938F939F93AF93BF9335
:102BD000EF93FF9380915D0290915E02A0915F025E
:102BE000B0916002892B8A2B8B2BD1F190915802E6
:102BF000E0915902F0915A02808189278083809167
:102C00005D0290915E02A0915F02B0916002181681
:102C100019061A061B069CF480915D0290915E02D3
:102C2000A0915F02B09160020197A109B109809360
:102C30005D0290935E02A0935F02B0936002FF91E9
:102C4000EF91BF91AF919F918F917F916F915F9124
:102C50004F913F912F910F900FBE0F901F9018959D
:102C6000809100010E941A02EACF1F920F920FB6C4
:102C70000F9211242F933F934F935F936F937F9302
:102C80008F939F93AF93BF93EF93FF9389E692E067
:102C90000E943401FF91EF91BF91AF919F918F916D
:102CA0007F916F915F914F913F912F910F900FBE48
:102CB0000F901F9018951F920F920FB60F9211242C
:102CC0002F938F939F93EF93FF93E0917902F0916D
:102CD0007A028081E0917F02F091800282FD1BC028
:102CE0009081809182028F5F8F732091830282177F
:102CF00041F0E0918202F0E0E759FD4F958F80931B
:102D00008202FF91EF919F918F912F910F900FBEB3
:102D10000F901F9018958081F4CF1F920F920FB6DD
:102D20000F9211242F933F938F939F93AF93BF9351
:102D300080914F0290915002A0915102B0915202A5
:102D400030914E0223E0230F2D3758F50196A11D37
:102D5000B11D20934E0280934F0290935002A09396
:102D60005102B09352028091530290915402A0916B
:102D70005502B09156020196A11DB11D80935302D8
:102D800090935402A0935502B0935602BF91AF9115
:102D90009F918F913F912F910F900FBE0F901F9099
:102DA000189526E8230F0296A11DB11DD2CF1F92C0
:102DB0000F920FB60F9211242F933F934F935F936F
:102DC0006F937F938F939F93AF93BF93CF93DF9333
:102DD000EF93FF9380912802C0914D02D0E087FFCE
:102DE00024C01092850010928400809128028F5F89
:102DF0008093280280912802082E000C990B8C17D2
:102E00009D0724F4809128028C30C4F180918400C5
:102E100090918500049680349C4908F47AC0809192
:102E2000840090918500049676C080912802082E37
:102E3000000C990B8C179D07C4F6E09128028E2F89
:102E4000EE0F990BFC01EE0FFF1FE80FF91FE75D76
:102E5000FD4F808186FFC9CFE09128028E2FEE0FB3
:102E6000990BFC01EE0FFF1FE80FF91FE75DFD4F07
:102E7000808160E08F730E94EC01B7CF20918400C5
:102E800030918500E09128028E2FEE0F990BFC0106
:102E9000EE0FFF1FE80FF91FE75DFD4F8181928163
:102EA000820F931F9093890080938800E0912802FD
:102EB0008E2FEE0F990BFC01EE0FFF1FE80FF91F8D
:102EC000E75DFD4F808186FF11C0E09128028E2FC3
:102ED000EE0F990BFC01EE0FFF1FE80FF91FE75DE6
:102EE000FD4F808161E08F730E94EC01FF91EF91B3
:102EF000DF91CF91BF91AF919F918F917F916F9112
:102F00005F914F913F912F910F900FBE0F901F90A7
:102F1000189580E49CE990938900809388008FEF56
:102F200080932802E3CFFC0190914D029C3098F4ED
:102F300081E0890F80934D029083892F90E0FC01FE
:102F4000EE0FFF1FE80FF91FE75DFD4F88EB9BE0D9
:102F50009283818308958FEF808308950F931F9349
:102F6000CF93DF9310926C0210926B0288EE93E085
:102F7000A0E0B0E080936D0290936E02A0936F0288
:102F8000B093700289E191E090936A0280936902A4
:102F900085EC90E0909376028093750284EC90E04B
:102FA000909378028093770280EC90E090937A027D
:102FB0008093790281EC90E090937C0280937B0275
:102FC00082EC90E090937E0280937D0286EC90E00C
:102FD0009093800280937F0210928202109283026B
:102FE0001092840210928502C1E0C0932E041092C8
:102FF0002F04109231041092300410923304109276
:1030000032048FEF80933404109235041092370409
:1030100010923604C093380410923904D2E0D09351
:103020003A04C0933B0410923C0410923D04109269
:103030003E0410923F048BE294E00E94931788E2D2
:1030400094E00E94931785E294E00E94931782E235
:1030500094E00E94931710921D0410921C04109289
:103060001F0410921E04109221041092200450E0BC
:1030700040E067E371E08CE194E00E94201086E478
:1030800093E00E94C5071091440380914203909100
:10309000430310922E0310923403109236031092C1
:1030A000350310923B0310923C0310923D031092A3
:1030B0003E03C0933A03C093370310923803D09372
:1030C0003903C0932D030E94D90D812F0E94E00483
:1030D000C6E0D3E00DE213E0CE010E9493172396E1
:1030E0000C171D07C9F7DF91CF911F910F9108951C
:1030F000CF93DF93CDB7DEB7C356D1090FB6F8949F
:10310000DEBF0FBECDBF789484B5826084BD84B528
:10311000816084BD85B5826085BD85B5816085BDD2
:1031200080916E00816080936E001092810080918A
:103130008100826080938100809181008160809312
:103140008100809180008160809380008091B10037
:1031500084608093B1008091B00081608093B00062
:1031600080917A00846080937A0080917A008260F6
:1031700080937A0080917A00816080937A008091B8
:103180007A00806880937A001092C100E091790201
:10319000F0917A0282E08083E0917502F0917602EC
:1031A0001082E0917702F091780280E180831092A2
:1031B0008102E0917D02F0917E0286E08083E091C1
:1031C0007B02F0917C02808180618083E0917B02B0
:1031D000F0917C02808188608083E0917B02F09195
:1031E0007C02808180688083E0917B02F0917C0288
:1031F00080818F7D808368EC70E08CE194E00E9498
:10320000F80F26E4E22E23E0F22E670180915702A8
:10321000882309F49AC040911C0450911D048091A8
:10322000200490912104840F951F20914603309132
:103230004703309349032093480320914C03309176
:103240004D0330934B0320934A0310924E03209179
:1032500053032078209353036E96FFAEEEAE6E9725
:1032600028E0FE01E45AFF4FDE01AC5ABF4F019047
:103270000D922A95E1F728E0FE01EC5AFF4FDE019E
:10328000119601900D922A95E1F719865B874A877E
:103290009D878C871F86D98AC88A64961FAE1EAE0A
:1032A00064974AE06FE473E0CE0101960E94530EEA
:1032B00064960EAD1FAD64970115110569F48E85F6
:1032C000882309F44EC080915303982F9F779C3038
:1032D00009F043C003E010E098EDA92E90E0B92E6C
:1032E000F5016491662349F089E692E00E94560157
:1032F000FFEFAF1ABF0A892B99F7000F111FF801D2
:10330000E95FFE4F608171816115710561F0FB011C
:1033100001900020E9F73197AF01461B570B89E672
:1033200092E00E94C00042E050E064ED71E089E666
:1033300092E00E94C00050E040E067E371E08CE161
:1033400094E00E942010109257020E942A018823C4
:1033500009F45CCF0E948C1559CF8D77883009F421
:10336000B9CF0E944B10F1CFFC01892B69F09481F9
:1033700090786115710519F4948381E00895946043
:10338000948371836083F9CF80E0089560E083E0E7
:103390000E94EC0160E085E00C94EC01181619061F
:1033A000ACF48D32910514F48DE290E0893C9105E6
:1033B00014F088EC90E065EF70E0681B790B85E015
:1033C0000E94150561E083E00C94EC010097D1F0B8
:1033D00089332FEF92079CF09C01235D3F4F2B35E3
:1033E000310510F48DE290E0BC0197FF03C07195A8
:1033F0006195710985E00E94150560E0E4CF82EDDA
:1034000090E0F2CF0C94C61960E086E00E94EC01D7
:1034100060E089E00C94EC0118161906ACF48D32CA
:10342000910514F48DE290E0893C910514F088EC4C
:1034300090E065EF70E0681B790B86E00E9415054F
:1034400061E089E00C94EC010097D1F089332FEF13
:1034500092079CF09C01235D3F4F2B35310510F402
:103460008DE290E0BC0197FF03C0719561957109F1
:1034700086E00E94150560E0E4CF82ED90E0F2CF97
:103480000C94041AFC019B01892BD1F0AB01770F3E
:10349000660B770B9481907837FD08C09860948311
:1034A000408351836283738381E008959A6094839B
:1034B00070956095509541955F4F6F4F7F4FF0CF5E
:1034C00080E00895CF93DF9300D000D000D0CDB737
:1034D000DEB729E632E03A8329831C821B82BE01D3
:1034E0006F5F7F4F09960E94430B26960FB6F894A4
:1034F000DEBF0FBECDBFDF91CF910895EF92FF9257
:103500000F931F93CF93DF93EC018C81982F9F77BC
:1035100039F4807880628C83198218821B821A8227
:103520008C8185FF1EC061157105D9F07A018B0170
:10353000888199810E94310E009761F4B701CE0114
:103540000E94F60A009731F0FC0124812F77248332
:1035500017830683DF91CF911F910F91FF90EF901A
:10356000089590E080E0F6CFCF93DF93EC0188855B
:103570009985009711F00E94141E8E8187FD05C069
:1035800060E0DF91CF910C944602DF91CF910895D6
:103590008DE293E00E94B41A80911C0490911D0466
:1035A000009711F00E94141E8EE294E00C94B41A5D
:1035B0000E941A1B08F481E00895E89409C097FB63
:1035C0003EF490958095709561957F4F8F4F9F4FFA
:1035D0009923A9F0F92F96E9BB279395F69587953E
:1035E00077956795B795F111F8CFFAF4BB0F11F401
:1035F00060FF1BC06F5F7F4F8F4F9F4F16C08823A8
:1036000011F096E911C0772321F09EE8872F762FDD
:1036100005C0662371F096E8862F70E060E02AF01E
:103620009A95660F771F881FDAF7880F969587950A
:1036300097F90895990F0008550FAA0BE0E8FEEFDF
:1036400016161706E807F907C0F012161306E40766
:10365000F50798F0621B730B840B950B39F40A265F
:1036600061F0232B242B252B21F408950A2609F43D
:10367000A140A6958FEF811D811D08950E94511BC9
:103680000C94C21B0E94B41B38F00E94BB1B20F09C
:10369000952311F00C94AB1B0C94B11B11240C94CA
:1036A000F61B0E94D31B70F3959FC1F3950F50E05A
:1036B000551F629FF001729FBB27F00DB11D639FE4
:1036C000AA27F00DB11DAA1F649F6627B00DA11D8A
:1036D000661F829F2227B00DA11D621F739FB00D30
:1036E000A11D621F839FA00D611D221F749F3327A0
:1036F000A00D611D231F849F600D211D822F762F39
:103700006A2F11249F5750409AF0F1F088234AF015
:10371000EE0FFF1FBB1F661F771F881F9150504081
:10372000A9F79E3F510580F00C94AB1B0C94F61B3F
:103730005F3FE4F3983ED4F3869577956795B79508
:10374000F795E7959F5FC1F7FE2B880F911D969522
:10375000879597F9089597F99F6780E870E060E092
:1037600008959FEF80EC089500240A94161617061A
:1037700018060906089500240A9412161306140662
:1037800005060895092E0394000C11F4882352F0C5
:10379000BB0F40F4BF2B11F460FF04C06F5F7F4F7D
:1037A0008F4F9F4F089557FD9058440F551F59F064
:1037B0005F3F71F04795880F97FB991F61F09F3F1E
:1037C00079F087950895121613061406551FF2CF47
:1037D0004695F1DF08C0161617061806991FF1CF97
:1037E00086957105610508940895E894BB276627BE
:1037F0007727CB0197F90895052E97FB1EF40094C7
:103800000E94131C57FD07D00E94651C07FC03D0C3
:103810004EF40C94131C50954095309521953F4FD4
:103820004F4F5F4F089590958095709561957F4FAC
:103830008F4F9F4F08950E94871CA59F900DB49FA6
:10384000900DA49F800D911D11240895B7FF0C9435
:103850001B1C0E941B1C821B930B08952F923F92EE
:103860004F925F926F927F928F929F92AF92BF9290
:10387000CF92DF92EF92FF920F931F93CF93DF933C
:10388000CDB7DEB7CA1BDB0B0FB6F894DEBF0FBE99
:10389000CDBF09942A88398848885F846E847D84E6
:1038A0008C849B84AA84B984C884DF80EE80FD80E8
:1038B0000C811B81AA81B981CE0FD11D0FB6F8945E
:1038C000DEBF0FBECDBFED010895A1E21A2EAA1BE7
:1038D000BB1BFD010DC0AA1FBB1FEE1FFF1FA217C0
:1038E000B307E407F50720F0A21BB30BE40BF50BBD
:1038F000661F771F881F991F1A9469F76095709546
:10390000809590959B01AC01BD01CF010895A29FC8
:10391000B001B39FC001A39F700D811D1124911DA3
:10392000B29F700D811D1124911D08955058BB2721
:10393000AA270E94AE1C0C94C21B0E94B41B38F034
:103940000E94BB1B20F039F49F3F19F426F40C941D
:10395000B11B0EF4E095E7FB0C94AB1BE92F0E9422
:10396000D31B58F3BA17620773078407950720F033
:1039700079F4A6F50C94F51B0EF4E0950B2EBA2FF6
:10398000A02D0B01B90190010C01CA01A001112465
:10399000FF27591B99F0593F50F4503E68F11A1611
:1039A000F040A22F232F342F4427585FF3CF4695A2
:1039B00037952795A795F0405395C9F77EF41F16C4
:1039C000BA0B620B730B840BBAF09150A1F0FF0F8E
:1039D000BB1F661F771F881FC2F70EC0BA0F621F7A
:1039E000731F841F48F4879577956795B795F7956A
:1039F0009E3F08F0B0CF9395880F08F09927EE0FFF
:103A00009795879508950E940A1D6894B1110C94AA
:103A1000F61B08950E94DB1B88F09F5798F0B92F82
:103A20009927B751B0F0E1F0660F771F881F991FF3
:103A30001AF0BA95C9F714C0B13091F00E94F51B85
:103A4000B1E008950C94F51B672F782F8827B85F95
:103A500039F0B93FCCF3869577956795B395D9F74B
:103A60003EF490958095709561957F4F8F4F9F4F55
:103A700008950E941A1B08F48FEF0895991B79E0AE
:103A800004C0991F961708F0961B881F7A95C9F7EE
:103A900080950895AA1BBB1B51E107C0AA1FBB1F3D
:103AA000A617B70710F0A61BB70B881F991F5A95CA
:103AB000A9F780959095BC01CD01089597FB072E3D
:103AC00016F4009407D077FD09D00E944A1D07FC28
:103AD00005D03EF4909581959F4F0895709561951E
:103AE0007F4F0895EE0FFF1F0590F491E02D09948C
:103AF0000F931F93CF93DF938230910510F482E0F0
:103B000090E0E0914504F091460430E020E0B0E020
:103B1000A0E0309799F42115310509F44AC0281B1B
:103B2000390B24303105D8F58A819B8161157105E7
:103B300089F1FB0193838283FE0111C04081518191
:103B40000281138148175907E0F04817590799F483
:103B5000109761F012960C93129713961C9332965D
:103B6000CF01DF91CF911F910F91089500934504EC
:103B700010934604F4CF2115310551F04217530735
:103B800038F0A901DB019A01BD01DF01F801C1CFC5
:103B9000EF01F9CF9093460480934504CDCFFE0109
:103BA000E20FF31F819391932250310939832883C7
:103BB000D7CF2091430430914404232B41F420912A
:103BC0000301309104013093440420934304209175
:103BD0000101309102012115310541F42DB73EB7A5
:103BE0004091050150910601241B350BE0914304DF
:103BF000F0914404E217F307A0F42E1B3F0B2817A3
:103C0000390778F0AC014E5F5F4F2417350748F055
:103C10004E0F5F1F5093440440934304819391934C
:103C20009FCFF0E0E0E09CCFCF93DF930097E9F0E7
:103C3000FC01329713821282A0914504B091460490
:103C4000ED0130E020E01097A1F420813181820F56
:103C5000931F20914304309144042817390709F039
:103C600061C0F0934404E0934304DF91CF91089541
:103C7000EA01CE17DF07E8F54A815B819E01411515
:103C80005105B1F7E901FB83EA8349915991C40FCA
:103C9000D51FEC17FD0761F4808191810296840F96
:103CA000951FE90199838883828193819B838A830D
:103CB000F0E0E0E012968D919C9113970097B9F592
:103CC0002D913C911197CD010296820F931F209167
:103CD0004304309144042817390739F6309751F5D9
:103CE0001092460410924504B0934404A0934304F8
:103CF000BCCFD383C28340815181840F951FC817E5
:103D0000D90761F44E5F5F4F88819981480F591F31
:103D1000518340838A819B8193838283211531055E
:103D200009F0B0CFF0934604E09345049ECFFD0127
:103D3000DC01C0CF13821282D7CFB0E0A0E0E3EA6B
:103D4000FEE10C94301C8C01009751F4CB010E94D1
:103D5000781D8C01C801CDB7DEB7E0E10C944C1C96
:103D6000FC01E60FF71F9C0122503109E217F3070F
:103D700008F49DC0D901CD91DC911197C617D707E2
:103D800098F0C530D10530F3CE0104978617970718
:103D900008F3C61BD70B2297C193D1936D937C93E5
:103DA000CF010E94141ED6CF5B01AC1ABD0A4C0194
:103DB0008C0E9D1EA0914504B0914604512C412CBF
:103DC000F12CE12C109731F580914304909144043B
:103DD0008815990509F05CC04616570608F058C0CA
:103DE0008091010190910201009741F48DB79EB737
:103DF0004091050150910601841B950BE817F907C6
:103E000008F055C0F0934404E0934304F901718332
:103E10006083A0CF8D919C91119712966C90129710
:103E200013967C901397A815B90559F56C0142E0DB
:103E3000C40ED11CCA14DB0420F1AC014A195B0981
:103E4000DA011296159780F0628273825183408363
:103E5000D9016D937C93E114F10471F0D7011396AD
:103E6000FC93EE93129776CF22968C0F9D1FF9014B
:103E700091838083F301EFCFF0934604E0934504F0
:103E800069CF4816590608F42C017D01D3019ACF59
:103E9000CB010E94781D7C01009749F0AE01B8016A
:103EA0000E945A1FC8010E94141E870153CF10E0C0
:103EB00000E050CFFB01DC0102C001900D924150A7
:103EC0005040D8F70895DC0101C06D934150504037
:103ED000E0F70895FB01DC018D910190801901103C
:103EE000D9F3990B0895FB01DC0101900D9200209C
:103EF000E1F7089510E0C4E9D0E004C0FE010E949B
:103F0000721D2196C539D107C9F7F894FFCFFF007C
:103F10000047048000D701DA01E501F50102020B38
:103F2000021802000000005601C000ED00A3011EAF
:103F300001FC0010012F2F22225C5C6208660C6ECF
:103F40000A720D7409006E756C6C00652D00747238
:103F500075650066616C736500727174006C690050
:103F600063006C730067006C6200760062757A7A99
:103F70006572006F6E64656C6179006F666664657A
:103F80006C6179006D656C6F64795F7370006E6F42
:103F900074650074656D706F006265617400646FB4
:103FA00000646F5F6D0070776D0070776D5F6D00FE
:103FB0006D6F746F72006C73706400727370640064
:103FC000736572766F00736572766F5F6D006169FD
:103FD000007273700061695F6D0064690064695FFD
:103FE0006D000D0A004F6B00456D707479496E705D
:103FF000757400496E636F6D706C657465496E70A1
:10400000757400496E76616C6964496E70757400F0
:104010004E6F4D656D6F7279004E6F745375707091
:0E4020006F7274656400546F6F4465657000C4
:107800000C94343C0C94513C0C94513C0C94513CE1
:107810000C94513C0C94513C0C94513C0C94513CB4
:107820000C94513C0C94513C0C94513C0C94513CA4
:107830000C94513C0C94513C0C94513C0C94513C94
:107840000C94513C0C94513C0C94513C0C94513C84
:107850000C94513C0C94513C0C94513C0C94513C74
:107860000C94513C0C94513C11241FBECFEFD8E036
:10787000DEBFCDBF11E0A0E0B1E0ECE9FFE702C060
:1078800005900D92A230B107D9F712E0A2E0B1E065
:1078900001C01D92AD30B107E1F70E942D3D0C945F
:1078A000CC3F0C94003C982F959595959595959582
:1078B000905D8F708A307CF0282F295A8091C0000B
:1078C00085FFFCCF9093C6008091C00085FFFCCF60
:1078D0002093C6000895282F205DF0CF982F809127
:1078E000C00085FFFCCF9093C6000895EF92FF92F1
:1078F0000F931F93EE24FF2487018091C00087FD22
:1079000017C00894E11CF11C011D111D81E4E8164B
:1079100082E4F8068FE0080780E0180770F3E09132
:107920000401F091050109958091C00087FFE9CF1E
:107930008091C6001F910F91FF90EF9008950E94D3
:10794000763C982F8091C00085FFFCCF9093C600B5
:1079500091362CF490330CF09053892F089597555D
:10796000892F08951F930E949F3C182F0E949F3CCF
:107970001295107F810F1F9108951F93182F882350
:1079800021F00E94763C1150E1F71F9108951F935A
:10799000182F0E94763C803249F0809103018F5F5E
:1079A000809303018530C1F01F9108958091C0003C
:1079B00085FFFCCF84E18093C6008091C00085FFE5
:1079C000FCCF1093C6008091C00085FFFCCF80E102
:1079D0008093C6001F910895E0910401F091050184
:1079E00009951F9108950E94763C803241F0809164
:1079F00003018F5F80930301853081F008958091AA
:107A0000C00085FFFCCF84E18093C6008091C00058
:107A100085FFFCCF80E18093C6000895E0910401CA
:107A2000F09105010995089540E951E08823A1F0FE
:107A30002D9A28EE33E0FA013197F1F721503040CA
:107A4000D1F72D9828EE33E0FA013197F1F7215064
:107A50003040D1F7815061F708953F924F925F9285
:107A60006F927F928F929F92AF92BF92CF92DF924E
:107A7000EF92FF920F931F93CF93DF93000080E16B
:107A80008093C4001092C50088E18093C10086E015
:107A90008093C2005098589A259A81E00E94143D24
:107AA00024E1F22E9EE1E92E85E9D82E0FE0C02ECA
:107AB00010E1B12EAA24A394B1E49B2EA6E58A2E50
:107AC000F2E57F2EE0E26E2E79E4572E63E5462E36
:107AD00050E5352E0E94763C8033B1F18133B9F107
:107AE000803409F46FC0813409F476C0823409F41B
:107AF00085C0853409F488C0803531F1823521F1A3
:107B0000813511F1853509F485C0863509F48DC0BC
:107B1000843609F496C0843709F403C1853709F423
:107B200072C1863709F466C0809103018F5F80932C
:107B30000301853079F6E0910401F0910501099582
:107B40000E94763C803351F60E94F33CC3CF0E94E2
:107B5000763C803249F78091C00085FFFCCFF092DF
:107B6000C6008091C00085FFFCCF9092C600809136
:107B7000C00085FFFCCF8092C6008091C00085FFC9
:107B8000FCCF7092C6008091C00085FFFCCF609250
:107B9000C6008091C00085FFFCCF5092C600809146
:107BA000C00085FFFCCF4092C6008091C00085FFD9
:107BB000FCCF3092C6008091C00085FFFCCFB09210
:107BC000C60088CF0E94763C863808F4BDCF0E945C
:107BD000763C0E94F33C7ECF0E94763C803809F4CC
:107BE0009CC0813809F40BC1823809F43CC1883942
:107BF00009F48FC080E00E94C73C6CCF84E10E94F2
:107C0000BD3C0E94F33C66CF85E00E94BD3C0E94D3
:107C1000F33C60CF0E94763C809306010E94763C44
:107C2000809307010E94F33C55CF0E94763C80333D
:107C300009F41DC183E00E94BD3C80E00E94C73C66
:107C400049CF0E94763C809309020E94763C809343
:107C5000080280910C028E7F80930C020E94763C79
:107C6000853409F415C18091080290910902892B8D
:107C700089F000E010E00E94763CF801E85FFE4FDA
:107C800080830F5F1F4F80910802909109020817AF
:107C9000190788F30E94763C803209F045CF809125
:107CA0000C0280FF01C16091060170910701660F0F
:107CB000771F7093070160930601A0910802B091AD
:107CC00009021097C9F0E8E0F1E09B01AD014E0F09
:107CD0005F1FF999FECF32BD21BD819180BDFA9A17
:107CE000F99A2F5F3F4FE417F50799F76A0F7B1F4B
:107CF00070930701609306018091C00085FFFCCF5F
:107D0000F092C6008091C00085FFFCCFB092C60003
:107D1000E1CE83E00E94C73CDDCE82E00E94C73CFA
:107D2000D9CE0E94763C809309020E94763C8093D3
:107D300008028091060190910701880F991F909386
:107D40000701809306010E94763C853409F4A6C0A1
:107D500080910C028E7F80930C020E94763C8032D0
:107D600009F0B8CE8091C00085FFFCCFF092C6002C
:107D7000609108027091090261157105B9F140E046
:107D800050E080910C02A82FA170B82FB27011C0E2
:107D9000BB2309F45CC0E0910601F0910701319624
:107DA000F0930701E09306014F5F5F4F46175707B7
:107DB000E8F4AA2369F3F999FECF209106013091E6
:107DC000070132BD21BDF89A90B58091C00085FFB2
:107DD000FCCF9093C6002F5F3F4F30930701209355
:107DE00006014F5F5F4F4617570718F38091C00099
:107DF00085FDE5CE8091C00085FFF8CFE0CE81E023
:107E00000E94C73C67CE0E94763C803209F08CCE3F
:107E10008091C00085FFFCCFF092C6008091C00029
:107E200085FFFCCFE092C6008091C00085FFFCCFAB
:107E3000D092C6008091C00085FFFCCFC092C600E2
:107E40008091C00085FFFCCFB092C60043CEE09188
:107E50000601F091070194918091C00085FFFCCF4D
:107E60009093C6009CCF80E10E94C73C33CE0E9415
:107E7000763C0E94763C182F0E94763C112309F430
:107E800083C0113009F484C08FE00E94C73C22CE29
:107E900080910C02816080930C02E5CE80910C02EF
:107EA000816080930C0259CF809107018823880F4D
:107EB000880B8A2180930B02809106019091070123
:107EC000880F991F90930701809306018091080203
:107ED00080FF09C080910802909109020196909359
:107EE000090280930802F894F999FECF1127E091D6
:107EF0000601F0910701C8E0D1E08091080290915D
:107F00000902103091F40091570001700130D9F34B
:107F100003E000935700E89500915700017001308D
:107F2000D9F301E100935700E89509901990009169
:107F3000570001700130D9F301E000935700E89534
:107F40001395103498F011270091570001700130FB
:107F5000D9F305E000935700E895009157000170B0
:107F60000130D9F301E100935700E895329602976A
:107F700009F0C7CF103011F00296E5CF112480919F
:107F8000C00085FFB9CEBCCE8EE10E94C73CA2CD19
:0E7F900085E90E94C73C9ECDF894FFCF80008B
:00000001FF
